:1000000009C019C018C017C016C015C014C013C04D
:1000100098C011C011241FBECFE9CDBF20E0A0E6DB
:10002000B0E001C01D92A637B207E1F700E401BDC0
:10003000789402D0A0C0E4CFBB98BC98C49AB99A77
:10004000C19A7724739480916900811113C072D092
:100050008093610090936200A0936300B09364006A
:10006000109265001092660010926700109268006E
:100070007092690086B383FB882480F8912C80916C
:100080006000813001F581149104E9F4BC9AC498B0
:1000900080EA8A95F1F70000C49AE0E2EA95F1F768
:1000A000BC98C49A47D08093610090936200A0935B
:1000B0006300B09364001092650010926600109285
:1000C0006700109268008092600034D09C01AD01FE
:1000D00060E070E080E090E0A0906100B09062008D
:1000E000C0906300D0906400E0906500F0906600DE
:1000F000009167001091680035D0203C344D4105D7
:100100005105610571058105910509F008F49BCF42
:10011000C1980FB6F894A89581B5886181BD11BCCE
:100120000FBE85B7877E806185BF85B7806285BF3A
:10013000889589CFE1E7F89481919191A191B1914E
:100140001895EF93EFB7EF930F93E1E700810D5E02
:1001500002C000810F4F0193E0F70F91EF91EFBFC5
:10016000EF9118952A193B094C095D096E097F0921
:0A017000800B910B0895F894FFCF67
:00000001FF
